:020000040800F2
:10000000080400205D0100088B0400088304000838
:1000100087040008D1010008F30700080000000071
:100020000000000000000000000000008D05000836
:100030008F030008000000008D0400088F050008F1
:1000400077010008770100087701000877010008B0
:1000500077010008770100087701000877010008A0
:100060007701000877010008770100087701000890
:100070007701000877010008770100087701000880
:100080007701000877010008770100087701000870
:100090007701000877010008770100087701000860
:1000A0007701000877010008770100087701000850
:1000B0007701000877010008770100087701000840
:1000C0007701000877010008770100087701000830
:1000D0007701000877010008770100087701000820
:1000E0007701000877010008770100087701000810
:1000F0007701000877010008770100087701000800
:1001000077010008770100087701000877010008EF
:1001100077010008770100087701000877010008DF
:1001200077010008770100087701000877010008CF
:10013000000000007701000877010008770100083F
:1001400077010008DFF810D000F030F800480047D1
:10015000B1090008AFF3008008040020064880477A
:1001600006480047FEE7FEE7FEE7FEE7FEE7FEE79C
:10017000FEE7FEE7FEE7FEE775060008450100081A
:1001800030B50B46014600202022012409E021FA67
:1001900002F59D4205D303FA02F5491B04FA02F564
:1001A0002844151EA2F10102F1DC30BD064C074DBA
:1001B00006E0E06840F0010394E807009847103437
:1001C000AC42F6D3FFF7C2FF3C0A00085C0A000805
:1001D00000BFFEE710B5002400F02AF804E0601C20
:1001E000C4B2012000F0E4F84FF400710F4800F0B1
:1001F0003BF9012801D1642CF1DB642C01DB0120E7
:1002000010BD002404E0601CC4B2012000F0D0F84E
:100210004FF40071054800F027F908B9642CF2DBAF
:10022000642C01DB0120EBE70020E9E7000C014032
:1002300008B54FF40070ADF8000004208DF80300FD
:1002400003208DF802006946014800F0C0F808BD9F
:10025000000C014008B54FF40070ADF8000080209C
:100260008DF8030003208DF802006946014800F074
:10027000AEF808BD000C014010B5082000F008F9E8
:1002800000F004F8FFF7A6FF10BD000010B5FFF75F
:10029000E1FF4FF40071074800F0EFF8142000F080
:1002A00077F84FF40071034800F0E9F81E2000F0E1
:1002B0007FF810BD000C014010B5002404E0601C64
:1002C000C4B2012000F074F84FF40071114800F03E
:1002D000CBF8012801D1642CF1DB002404E0601C80
:1002E000C4B2012000F064F84FF40071094800F036
:1002F000BBF808B9642CF2DB282000F059F84FF461
:100300000071044800F0B0F8012800D110BD0020B1
:10031000FCE70000000C014070B50024002506E059
:100320006006040EFFF7C8FF0443681CC5B2082D21
:10033000F6DB204670BD7CB505460E46FFF7A6FFEE
:10034000FFF748FFF8B9002405E0FFF7E5FF0DF8D7
:100350000400601CC4B2052CF7DB9DF800009DF87A
:10036000011008449DF8021008449DF80310084449
:100370009DF80410884208D19DF8000030709DF867
:100380000200287001E001207CBD0020FCE77047DE
:10039000002107E042F6E06100BF0A1EA1F101035F
:1003A00099B2FAD1021EA0F1010398B2F2D17047BE
:1003B000002106E00A2100BF0A1EA1F1010399B243
:1003C000FAD1021EA0F1010398B2F3D17047F0B543
:1003D000CF7807F00F06CF7807F080070FB18F783E
:1003E0003E430F78E7B104680023012215E00F882F
:1003F00017407FB19D000F27AF40BC4306FA05F7B9
:100400003C43CF78282F01D1426103E0CF78482FB9
:1004100000D102615F1CFBB25200082BE7DB0460D5
:100420000F8807F47F47F7B1446808235A0117E0A3
:100430000F8817408FB1A3F10807BD000F27AF4009
:10044000BC4306FA05F73C43CF78282F01D142611F
:1004500003E0CF78482F00D102615F1CFBB252004D
:10046000102BE5DB4460F0BD024693680B400BB1F6
:10047000012300E000231846704741617047016185
:10048000704700BFFEE700BFFEE7704770470000FF
:10049000024989690143014A916170470010024095
:1004A0007FB509A30FCB8DE80F0000F03DF806469D
:1004B00009484068C0F303101DF8004026FA04F50F
:1004C000284604B070BD00000000000000000000DD
:1004D000010203040607080900100240FCB50446A7
:1004E0000D460EA103C9CDE90001FFF7D9FF07466C
:1004F00044B10C484068C0F302201DF8006027FAA0
:1005000006F0206045B107484068C0F3C2201DF8DE
:10051000006027FA06F02860FCBD00000000000023
:100520000102030400100240154B5B6803F0030056
:1005300020B1012804D002281DD103E011481CE09D
:1005400010481AE00E4B5B68C3F383439A1C0C4BB4
:100550005B68C3F3004151B10A4B02FB03F0084B47
:100560005B68C3F340438B4204D1400802E0064B72
:1005700002FB03F001E0034800BF00BF704700002A
:100580000010024000127A0000093D0070477047D9
:1005900008B53448006820F4803000F580303149D7
:1005A00008600020009008E02E480068C0F340403A
:1005B00000B106E00098401C00900098B0F5A04FF4
:1005C000F2D300BF27480068C0F34040002848D05D
:1005D0002548006820F010001030234908600846C4
:1005E000006820F00700801C08601E48406820F06A
:1005F000F0001C4948600846406820F4605048609C
:100600000846406820F4E06000F5806048600846D5
:10061000406820F4803000F580304860084640682B
:1006200020F4701000F5E01048600846006820F0E3
:10063000807000F18070086000BF0A480068C0F355
:1006400040600028F9D00748406820F00300801C73
:100650000449486000BF03484068C0F38100022895
:10066000F9D108BD001002400020024010B5FFF78C
:100670008FFF10BD10B51348006820F00100401C2A
:1006800010490860084640680F4908400D49486015
:10069000084600680D4908400A4908600846006895
:1006A00020F4802008600846406820F4FE0048607E
:1006B0004FF41F008860FFF7D9FF4FF00060044936
:1006C000086010BD001002400000FFF8FFFFF6FEBA
:1006D00008ED00E02DE9F84305460E46EC684EF6BD
:1006E000F3100440B07A31890843B18808430443C9
:1006F000EC602C694CF6FF700440F08804432C61D8
:100700006C694FF6FF400440B08904436C611448A3
:10071000854204D169460020FFF7E0FE03E0002196
:100720006846FFF7DBFE009800EBC00101EB00100C
:1007300031688900B0FBF1F86420B8FBF0F00401E7
:100740002009642101FB1087322000EB0710B0FB69
:10075000F1F000F00F000443AC60BDE8F883000046
:1007600000380140C16821F4005101F50051C16019
:100770007047000000B585B044F20400FFF788FE22
:1007800088208DF813004FF40070ADF8100003209E
:100790008DF8120004A90E48FFF719FE4FF4E1305E
:1007A00000900020ADF80C0008208DF80A00002011
:1007B000ADF80800ADF80600ADF80400694605483C
:1007C000FFF788FF0348FFF7CDFF05B000BD00002D
:1007D000000801400038014002461068084008B196
:1007E000012070470020FCE7426861F30802426084
:1007F000704700BFFEE700000FB4054B10B503A91A
:10080000044A029800F018F810BC5DF814FB0000D0
:100810008D0900080400002002E008C8121F08C16A
:10082000002AFAD170477047002001E001C1121F71
:10083000002AFBD1704700002DE9FF4F89B09B468D
:100840000446002506E025280BD05A460B99904710
:10085000641C6D1C20780028F5D10DB02846BDE839
:10086000F08F0027B8460122474900E0074314F8FB
:10087000013F203B02FA03F00842F7D120782E28EE
:1008800019D114F8010F47F004072A280ED06FF091
:100890002F022078A0F1300109290CD808EB88013B
:1008A00002EB410100EB0108641CF2E70A98641CAA
:1008B00050F8048B0A9020780028CED0642808D005
:1008C000692806D075281ED05A460B9990476D1C92
:1008D00058E00A994FF00A0901C90A91002802DA82
:1008E00040422D2102E0390504D52B218DF820103E
:1008F000012103E0F90704D02021F7E78A4608AE7A
:100900000DE00021FAE70A994FF00A0901C90A919E
:10091000F7E74946FFF734FC303106F8011D00289F
:10092000F7D1ADEB060000F12009780701D44FF0B4
:100930000108C84502DDA8EB090000E00020804660
:10094000002706E008A85A46C05D0B9990476D1C29
:100950007F1C5745F6DB04E030205A460B99904740
:100960006D1CB8F10001A8F10108F5DC05E016F8EE
:10097000010B5A460B9990476D1CB9F10001A9F182
:100980000109F4DC641C65E70928010070B5044620
:100990000D4600BF80210548FFF71EFF0028F9D053
:1009A000E1B20248FFF720FF204670BD0038014049
:1009B00010B5FFF7DFFE0BA0FFF71EFF0CE00AE00B
:1009C0000D490E48FFF7B7FC0B4802780B48017839
:1009D0000BA0FFF711FFF3E7FFF74EFC0028EED165
:1009E00010BD0000434C522830293B53424328306D
:1009F000293B200D0A00000001000020000000201B
:100A000044435632342831302C33302C27CEC2B6F2
:100A1000C83A2564A1E6272C31293B444356323499
:100A20002831302C36302C27CAAAB6C83A2564257E
:100A300025272C33293B0D0A000000005C0A000822
:100A4000000000200800000018080008640A0008E0
:100A50000800002000040000280800080000000032
:040A60000000000092
:0400000508000145A9
:00000001FF
